{
  "contractName": "VotingSystem",
  "abi": [
    {
      "inputs": [],
      "stateMutability": "nonpayable",
      "type": "constructor"
    },
    {
      "inputs": [
        {
          "internalType": "address",
          "name": "owner",
          "type": "address"
        }
      ],
      "name": "OwnableInvalidOwner",
      "type": "error"
    },
    {
      "inputs": [
        {
          "internalType": "address",
          "name": "account",
          "type": "address"
        }
      ],
      "name": "OwnableUnauthorizedAccount",
      "type": "error"
    },
    {
      "inputs": [],
      "name": "ReentrancyGuardReentrantCall",
      "type": "error"
    },
    {
      "anonymous": false,
      "inputs": [
        {
          "indexed": true,
          "internalType": "address",
          "name": "previousOwner",
          "type": "address"
        },
        {
          "indexed": true,
          "internalType": "address",
          "name": "newOwner",
          "type": "address"
        }
      ],
      "name": "OwnershipTransferred",
      "type": "event"
    },
    {
      "anonymous": false,
      "inputs": [
        {
          "indexed": true,
          "internalType": "uint256",
          "name": "pollId",
          "type": "uint256"
        },
        {
          "indexed": false,
          "internalType": "string",
          "name": "title",
          "type": "string"
        },
        {
          "indexed": false,
          "internalType": "address",
          "name": "creator",
          "type": "address"
        }
      ],
      "name": "PollCreated",
      "type": "event"
    },
    {
      "anonymous": false,
      "inputs": [
        {
          "indexed": true,
          "internalType": "uint256",
          "name": "pollId",
          "type": "uint256"
        },
        {
          "indexed": true,
          "internalType": "address",
          "name": "voter",
          "type": "address"
        },
        {
          "indexed": false,
          "internalType": "string",
          "name": "voteHash",
          "type": "string"
        }
      ],
      "name": "VoteCast",
      "type": "event"
    },
    {
      "anonymous": false,
      "inputs": [
        {
          "indexed": true,
          "internalType": "address",
          "name": "voter",
          "type": "address"
        }
      ],
      "name": "VoterRegistered",
      "type": "event"
    },
    {
      "inputs": [
        {
          "internalType": "uint256",
          "name": "",
          "type": "uint256"
        },
        {
          "internalType": "address",
          "name": "",
          "type": "address"
        }
      ],
      "name": "hasVoted",
      "outputs": [
        {
          "internalType": "bool",
          "name": "",
          "type": "bool"
        }
      ],
      "stateMutability": "view",
      "type": "function",
      "constant": true
    },
    {
      "inputs": [],
      "name": "owner",
      "outputs": [
        {
          "internalType": "address",
          "name": "",
          "type": "address"
        }
      ],
      "stateMutability": "view",
      "type": "function",
      "constant": true
    },
    {
      "inputs": [],
      "name": "pollCounter",
      "outputs": [
        {
          "internalType": "uint256",
          "name": "",
          "type": "uint256"
        }
      ],
      "stateMutability": "view",
      "type": "function",
      "constant": true
    },
    {
      "inputs": [
        {
          "internalType": "uint256",
          "name": "",
          "type": "uint256"
        },
        {
          "internalType": "uint256",
          "name": "",
          "type": "uint256"
        }
      ],
      "name": "pollVotes",
      "outputs": [
        {
          "internalType": "uint256",
          "name": "pollId",
          "type": "uint256"
        },
        {
          "internalType": "address",
          "name": "voter",
          "type": "address"
        },
        {
          "internalType": "string",
          "name": "encryptedVote",
          "type": "string"
        },
        {
          "internalType": "string",
          "name": "voteHash",
          "type": "string"
        },
        {
          "internalType": "uint256",
          "name": "timestamp",
          "type": "uint256"
        }
      ],
      "stateMutability": "view",
      "type": "function",
      "constant": true
    },
    {
      "inputs": [
        {
          "internalType": "uint256",
          "name": "",
          "type": "uint256"
        }
      ],
      "name": "polls",
      "outputs": [
        {
          "internalType": "uint256",
          "name": "id",
          "type": "uint256"
        },
        {
          "internalType": "string",
          "name": "title",
          "type": "string"
        },
        {
          "internalType": "string",
          "name": "description",
          "type": "string"
        },
        {
          "internalType": "uint256",
          "name": "startTime",
          "type": "uint256"
        },
        {
          "internalType": "uint256",
          "name": "endTime",
          "type": "uint256"
        },
        {
          "internalType": "bool",
          "name": "active",
          "type": "bool"
        },
        {
          "internalType": "address",
          "name": "creator",
          "type": "address"
        }
      ],
      "stateMutability": "view",
      "type": "function",
      "constant": true
    },
    {
      "inputs": [
        {
          "internalType": "address",
          "name": "",
          "type": "address"
        }
      ],
      "name": "registeredVoters",
      "outputs": [
        {
          "internalType": "bool",
          "name": "",
          "type": "bool"
        }
      ],
      "stateMutability": "view",
      "type": "function",
      "constant": true
    },
    {
      "inputs": [],
      "name": "renounceOwnership",
      "outputs": [],
      "stateMutability": "nonpayable",
      "type": "function"
    },
    {
      "inputs": [
        {
          "internalType": "address",
          "name": "newOwner",
          "type": "address"
        }
      ],
      "name": "transferOwnership",
      "outputs": [],
      "stateMutability": "nonpayable",
      "type": "function"
    },
    {
      "inputs": [
        {
          "internalType": "string",
          "name": "_title",
          "type": "string"
        },
        {
          "internalType": "string",
          "name": "_description",
          "type": "string"
        },
        {
          "internalType": "string[]",
          "name": "_options",
          "type": "string[]"
        },
        {
          "internalType": "uint256",
          "name": "_duration",
          "type": "uint256"
        }
      ],
      "name": "createPoll",
      "outputs": [
        {
          "internalType": "uint256",
          "name": "",
          "type": "uint256"
        }
      ],
      "stateMutability": "nonpayable",
      "type": "function"
    },
    {
      "inputs": [
        {
          "internalType": "address",
          "name": "_voter",
          "type": "address"
        }
      ],
      "name": "registerVoter",
      "outputs": [],
      "stateMutability": "nonpayable",
      "type": "function"
    },
    {
      "inputs": [
        {
          "internalType": "uint256",
          "name": "_pollId",
          "type": "uint256"
        },
        {
          "internalType": "string",
          "name": "_encryptedVote",
          "type": "string"
        },
        {
          "internalType": "string",
          "name": "_voteHash",
          "type": "string"
        }
      ],
      "name": "castVote",
      "outputs": [],
      "stateMutability": "nonpayable",
      "type": "function"
    },
    {
      "inputs": [
        {
          "internalType": "address",
          "name": "_voter",
          "type": "address"
        },
        {
          "internalType": "uint256",
          "name": "_pollId",
          "type": "uint256"
        },
        {
          "internalType": "string",
          "name": "_encryptedVote",
          "type": "string"
        },
        {
          "internalType": "string",
          "name": "_voteHash",
          "type": "string"
        }
      ],
      "name": "castVoteFor",
      "outputs": [],
      "stateMutability": "nonpayable",
      "type": "function"
    },
    {
      "inputs": [
        {
          "internalType": "uint256",
          "name": "_pollId",
          "type": "uint256"
        }
      ],
      "name": "getPollDetails",
      "outputs": [
        {
          "internalType": "uint256",
          "name": "id",
          "type": "uint256"
        },
        {
          "internalType": "string",
          "name": "title",
          "type": "string"
        },
        {
          "internalType": "string",
          "name": "description",
          "type": "string"
        },
        {
          "internalType": "string[]",
          "name": "options",
          "type": "string[]"
        },
        {
          "internalType": "uint256",
          "name": "startTime",
          "type": "uint256"
        },
        {
          "internalType": "uint256",
          "name": "endTime",
          "type": "uint256"
        },
        {
          "internalType": "bool",
          "name": "active",
          "type": "bool"
        }
      ],
      "stateMutability": "view",
      "type": "function",
      "constant": true
    },
    {
      "inputs": [
        {
          "internalType": "uint256",
          "name": "_pollId",
          "type": "uint256"
        },
        {
          "internalType": "address",
          "name": "_voter",
          "type": "address"
        }
      ],
      "name": "hasUserVoted",
      "outputs": [
        {
          "internalType": "bool",
          "name": "",
          "type": "bool"
        }
      ],
      "stateMutability": "view",
      "type": "function",
      "constant": true
    },
    {
      "inputs": [
        {
          "internalType": "uint256",
          "name": "_pollId",
          "type": "uint256"
        }
      ],
      "name": "getVotesByPoll",
      "outputs": [
        {
          "components": [
            {
              "internalType": "uint256",
              "name": "pollId",
              "type": "uint256"
            },
            {
              "internalType": "address",
              "name": "voter",
              "type": "address"
            },
            {
              "internalType": "string",
              "name": "encryptedVote",
              "type": "string"
            },
            {
              "internalType": "string",
              "name": "voteHash",
              "type": "string"
            },
            {
              "internalType": "uint256",
              "name": "timestamp",
              "type": "uint256"
            }
          ],
          "internalType": "struct VotingSystem.Vote[]",
          "name": "",
          "type": "tuple[]"
        }
      ],
      "stateMutability": "view",
      "type": "function",
      "constant": true
    },
    {
      "inputs": [
        {
          "internalType": "uint256",
          "name": "_pollId",
          "type": "uint256"
        }
      ],
      "name": "getVoteCount",
      "outputs": [
        {
          "internalType": "uint256",
          "name": "",
          "type": "uint256"
        }
      ],
      "stateMutability": "view",
      "type": "function",
      "constant": true
    },
    {
      "inputs": [
        {
          "internalType": "uint256",
          "name": "_pollId",
          "type": "uint256"
        }
      ],
      "name": "endPoll",
      "outputs": [],
      "stateMutability": "nonpayable",
      "type": "function"
    },
    {
      "inputs": [
        {
          "internalType": "address",
          "name": "_voter",
          "type": "address"
        }
      ],
      "name": "isVoterRegistered",
      "outputs": [
        {
          "internalType": "bool",
          "name": "",
          "type": "bool"
        }
      ],
      "stateMutability": "view",
      "type": "function",
      "constant": true
    }
  ],
  "bytecode": "0x608060405234801561000f575f80fd5b50338061003557604051631e4fbdf760e01b81525f600482015260240160405180910390fd5b61003e8161004c565b50600180555f60065561009b565b5f80546001600160a01b038381166001600160a01b0319831681178455604051919092169283917f8be0079c531659141344cd1fd0a4f28419497f9722a3daafe3b4186f6b6457e09190a35050565b611e30806100a85f395ff3fe608060405234801561000f575f80fd5b5060043610610111575f3560e01c8063ad0f04a91161009e578063df1ac33c1161006e578063df1ac33c1461029c578063e160dc20146102af578063eb2119db146102c2578063f2fde38b146102ed578063f43b877814610300575f80fd5b8063ad0f04a914610240578063b2c2f2e814610261578063d02eed3814610280578063dc296ae114610289575f80fd5b80638da5cb5b116100e45780638da5cb5b14610194578063934df0e1146101ae5780639a0040e4146101d2578063a9ff6df1146101f8578063ac2f00741461021a575f80fd5b806338db6dd314610115578063438596321461012a5780635ce9038b1461016c578063715018a61461018c575b5f80fd5b6101286101233660046116b5565b610313565b005b6101576101383660046116d5565b600360209081525f928352604080842090915290825290205460ff1681565b60405190151581526020015b60405180910390f35b61017f61017a3660046116ff565b6103d3565b6040516101639190611759565b61012861058c565b5f546040516001600160a01b039091168152602001610163565b6101c16101bc366004611809565b61059f565b604051610163959493929190611829565b6101e56101e03660046116ff565b610701565b6040516101639796959493929190611877565b6101576102063660046116b5565b60046020525f908152604090205460ff1681565b61022d6102283660046116ff565b6109ce565b6040516101639796959493929190611922565b61025361024e366004611a2d565b610b23565b604051908152602001610163565b61025361026f3660046116ff565b5f9081526005602052604090205490565b61025360065481565b6101576102973660046116d5565b610d2c565b6101286102aa366004611b34565b610d58565b6101286102bd366004611bad565b611117565b6101576102d03660046116b5565b6001600160a01b03165f9081526004602052604090205460ff1690565b6101286102fb3660046116b5565b6114b8565b61012861030e3660046116ff565b6114f5565b61031b611544565b6001600160a01b0381165f9081526004602052604090205460ff16156103885760405162461bcd60e51b815260206004820152601860248201527f566f74657220616c72656164792072656769737465726564000000000000000060448201526064015b60405180910390fd5b6001600160a01b0381165f81815260046020526040808220805460ff19166001179055517fb6be2187d059cc2a55fe29e0e503b566e1e0f8c8780096e185429350acffd3dd9190a250565b60606103dd611544565b5f82815260056020908152604080832080548251818502810185019093528083529193909284015b82821015610580575f8481526020908190206040805160a081018252600586029092018054835260018101546001600160a01b0316938301939093526002830180549293929184019161045790611c15565b80601f016020809104026020016040519081016040528092919081815260200182805461048390611c15565b80156104ce5780601f106104a5576101008083540402835291602001916104ce565b820191905f5260205f20905b8154815290600101906020018083116104b157829003601f168201915b505050505081526020016003820180546104e790611c15565b80601f016020809104026020016040519081016040528092919081815260200182805461051390611c15565b801561055e5780601f106105355761010080835404028352916020019161055e565b820191905f5260205f20905b81548152906001019060200180831161054157829003601f168201915b5050505050815260200160048201548152505081526020019060010190610405565b5050505090505b919050565b610594611544565b61059d5f611570565b565b6005602052815f5260405f2081815481106105b8575f80fd5b5f9182526020909120600590910201805460018201546002830180549295506001600160a01b039091169350906105ee90611c15565b80601f016020809104026020016040519081016040528092919081815260200182805461061a90611c15565b80156106655780601f1061063c57610100808354040283529160200191610665565b820191905f5260205f20905b81548152906001019060200180831161064857829003601f168201915b50505050509080600301805461067a90611c15565b80601f01602080910402602001604051908101604052809291908181526020018280546106a690611c15565b80156106f15780601f106106c8576101008083540402835291602001916106f1565b820191905f5260205f20905b8154815290600101906020018083116106d457829003601f168201915b5050505050908060040154905085565b5f60608060605f805f808811801561071b57506006548811155b6107375760405162461bcd60e51b815260040161037f90611c4d565b5f60025f8a81526020019081526020015f20604051806101000160405290815f820154815260200160018201805461076e90611c15565b80601f016020809104026020016040519081016040528092919081815260200182805461079a90611c15565b80156107e55780601f106107bc576101008083540402835291602001916107e5565b820191905f5260205f20905b8154815290600101906020018083116107c857829003601f168201915b505050505081526020016002820180546107fe90611c15565b80601f016020809104026020016040519081016040528092919081815260200182805461082a90611c15565b80156108755780601f1061084c57610100808354040283529160200191610875565b820191905f5260205f20905b81548152906001019060200180831161085857829003601f168201915b5050505050815260200160038201805480602002602001604051908101604052809291908181526020015f905b8282101561094a578382905f5260205f200180546108bf90611c15565b80601f01602080910402602001604051908101604052809291908181526020018280546108eb90611c15565b80156109365780601f1061090d57610100808354040283529160200191610936565b820191905f5260205f20905b81548152906001019060200180831161091957829003601f168201915b5050505050815260200190600101906108a2565b505050908252506004820154602080830191909152600583015460408084019190915260069093015460ff811615156060808501919091526101009091046001600160a01b031660809384015284519185015193850151908501519285015160a086015160c090960151929f949e50909c50919a5090985091965090945092505050565b60026020525f9081526040902080546001820180549192916109ef90611c15565b80601f0160208091040260200160405190810160405280929190818152602001828054610a1b90611c15565b8015610a665780601f10610a3d57610100808354040283529160200191610a66565b820191905f5260205f20905b815481529060010190602001808311610a4957829003601f168201915b505050505090806002018054610a7b90611c15565b80601f0160208091040260200160405190810160405280929190818152602001828054610aa790611c15565b8015610af25780601f10610ac957610100808354040283529160200191610af2565b820191905f5260205f20905b815481529060010190602001808311610ad557829003601f168201915b50505050600483015460058401546006909401549293909290915060ff81169061010090046001600160a01b031687565b5f610b2c611544565b600283511015610b885760405162461bcd60e51b815260206004820152602160248201527f506f6c6c206d7573742068617665206174206c656173742032206f7074696f6e6044820152607360f81b606482015260840161037f565b5f8211610bd75760405162461bcd60e51b815260206004820152601f60248201527f4475726174696f6e206d7573742062652067726561746572207468616e203000604482015260640161037f565b60068054905f610be683611c8a565b919050555060405180610100016040528060065481526020018681526020018581526020018481526020014281526020018342610c239190611ca2565b815260016020808301829052336040938401526006545f9081526002825292909220835181559183015190820190610c5b9082611d03565b5060408201516002820190610c709082611d03565b5060608201518051610c8c9160038401916020909101906115e9565b506080820151600482015560a0820151600582015560c08201516006918201805460e0909401516001600160a01b031661010002610100600160a81b0319921515929092166001600160a81b03199094169390931717909155546040517fd2a8dbeae3cac9e94402cc3d7e3ee6cb0a2c32d2e426bf82f24b87ffd1089efd90610d189088903390611dbf565b60405180910390a250600654949350505050565b5f8281526003602090815260408083206001600160a01b038516845290915290205460ff165b92915050565b610d60611544565b825f81118015610d7257506006548111155b610d8e5760405162461bcd60e51b815260040161037f90611c4d565b5f8181526002602052604090206006015460ff16610de35760405162461bcd60e51b8152602060048201526012602482015271506f6c6c206973206e6f742061637469766560701b604482015260640161037f565b5f81815260026020526040902060040154421015610e365760405162461bcd60e51b815260206004820152601060248201526f141bdb1b081b9bdd081cdd185c9d195960821b604482015260640161037f565b5f81815260026020526040902060050154421115610e835760405162461bcd60e51b815260206004820152600a602482015269141bdb1b08195b99195960b21b604482015260640161037f565b610e8b6115bf565b6001600160a01b0385165f9081526004602052604090205460ff16610ee95760405162461bcd60e51b8152602060048201526014602482015273159bdd195c881b9bdd081c9959da5cdd195c995960621b604482015260640161037f565b5f8481526003602090815260408083206001600160a01b038916845290915290205460ff1615610f5b5760405162461bcd60e51b815260206004820181905260248201527f566f74657220616c726561647920766f74656420696e207468697320706f6c6c604482015260640161037f565b5f835111610fab5760405162461bcd60e51b815260206004820152601e60248201527f456e6372797074656420766f74652063616e6e6f7420626520656d7074790000604482015260640161037f565b5f825111610ff75760405162461bcd60e51b8152602060048201526019602482015278566f746520686173682063616e6e6f7420626520656d70747960381b604482015260640161037f565b5f8481526003602090815260408083206001600160a01b038981168086529184528285208054600160ff199091168117909155835160a0810185528a81528086019384528085018a8152606082018a90524260808301528b885260058088529588208054808501825590895296909720815196909502909401948555915191840180546001600160a01b03191692909116919091179055915182919060028201906110a29082611d03565b50606082015160038201906110b79082611d03565b50608082015181600401555050856001600160a01b0316857ff707341d6361ac6d7fe6b6db1fbb91b1d8634754ce51f2244ccbfab475d327f4856040516110fe9190611de8565b60405180910390a35061111060018055565b5050505050565b335f9081526004602052604090205460ff1661116c5760405162461bcd60e51b8152602060048201526014602482015273159bdd195c881b9bdd081c9959da5cdd195c995960621b604482015260640161037f565b825f8111801561117e57506006548111155b61119a5760405162461bcd60e51b815260040161037f90611c4d565b5f8181526002602052604090206006015460ff166111ef5760405162461bcd60e51b8152602060048201526012602482015271506f6c6c206973206e6f742061637469766560701b604482015260640161037f565b5f818152600260205260409020600401544210156112425760405162461bcd60e51b815260206004820152601060248201526f141bdb1b081b9bdd081cdd185c9d195960821b604482015260640161037f565b5f8181526002602052604090206005015442111561128f5760405162461bcd60e51b815260206004820152600a602482015269141bdb1b08195b99195960b21b604482015260640161037f565b6112976115bf565b5f84815260036020908152604080832033845290915290205460ff16156113005760405162461bcd60e51b815260206004820152601a60248201527f416c726561647920766f74656420696e207468697320706f6c6c000000000000604482015260640161037f565b5f8351116113505760405162461bcd60e51b815260206004820152601e60248201527f456e6372797074656420766f74652063616e6e6f7420626520656d7074790000604482015260640161037f565b5f82511161139c5760405162461bcd60e51b8152602060048201526019602482015278566f746520686173682063616e6e6f7420626520656d70747960381b604482015260640161037f565b5f848152600360209081526040808320338085529083528184208054600160ff199091168117909155825160a081018452898152808501928352808401898152606082018990524260808301528a875260058087529487208054808501825590885295909620815195909402909301938455905190830180546001600160a01b0319166001600160a01b03909216919091179055915182919060028201906114449082611d03565b50606082015160038201906114599082611d03565b50608082015181600401555050336001600160a01b0316857ff707341d6361ac6d7fe6b6db1fbb91b1d8634754ce51f2244ccbfab475d327f4856040516114a09190611de8565b60405180910390a3506114b260018055565b50505050565b6114c0611544565b6001600160a01b0381166114e957604051631e4fbdf760e01b81525f600482015260240161037f565b6114f281611570565b50565b6114fd611544565b5f8111801561150e57506006548111155b61152a5760405162461bcd60e51b815260040161037f90611c4d565b5f908152600260205260409020600601805460ff19169055565b5f546001600160a01b0316331461059d5760405163118cdaa760e01b815233600482015260240161037f565b5f80546001600160a01b038381166001600160a01b0319831681178455604051919092169283917f8be0079c531659141344cd1fd0a4f28419497f9722a3daafe3b4186f6b6457e09190a35050565b6002600154036115e257604051633ee5aeb560e01b815260040160405180910390fd5b6002600155565b828054828255905f5260205f2090810192821561162d579160200282015b8281111561162d578251829061161d9082611d03565b5091602001919060010190611607565b5061163992915061163d565b5090565b80821115611639575f6116508282611659565b5060010161163d565b50805461166590611c15565b5f825580601f10611674575050565b601f0160209004905f5260205f20908101906114f291905b80821115611639575f815560010161168c565b80356001600160a01b0381168114610587575f80fd5b5f602082840312156116c5575f80fd5b6116ce8261169f565b9392505050565b5f80604083850312156116e6575f80fd5b823591506116f66020840161169f565b90509250929050565b5f6020828403121561170f575f80fd5b5035919050565b5f81518084525f5b8181101561173a5760208185018101518683018201520161171e565b505f602082860101526020601f19601f83011685010191505092915050565b5f6020808301818452808551808352604092508286019150828160051b8701018488015f5b838110156117fb57888303603f19018552815180518452878101516001600160a01b0316888501528681015160a0888601819052906117bf82870182611716565b915050606080830151868303828801526117d98382611716565b608094850151979094019690965250509487019492509086019060010161177e565b509098975050505050505050565b5f806040838503121561181a575f80fd5b50508035926020909101359150565b8581526001600160a01b038516602082015260a0604082018190525f9061185290830186611716565b82810360608401526118648186611716565b9150508260808301529695505050505050565b8781525f602060e08184015261189060e084018a611716565b83810360408501526118a2818a611716565b905083810360608501528088518083528383019150838160051b840101848b015f5b838110156118f257601f198684030185526118e0838351611716565b948701949250908601906001016118c4565b505080955050505050508460808301528360a083015261191660c083018415159052565b98975050505050505050565b87815260e060208201525f61193a60e0830189611716565b828103604084015261194c8189611716565b60608401979097525050608081019390935290151560a08301526001600160a01b031660c0909101529392505050565b634e487b7160e01b5f52604160045260245ffd5b604051601f8201601f1916810167ffffffffffffffff811182821017156119b9576119b961197c565b604052919050565b5f82601f8301126119d0575f80fd5b813567ffffffffffffffff8111156119ea576119ea61197c565b6119fd601f8201601f1916602001611990565b818152846020838601011115611a11575f80fd5b816020850160208301375f918101602001919091529392505050565b5f805f8060808587031215611a40575f80fd5b843567ffffffffffffffff80821115611a57575f80fd5b611a63888389016119c1565b9550602091508187013581811115611a79575f80fd5b611a8589828a016119c1565b955050604087013581811115611a99575f80fd5b8701601f81018913611aa9575f80fd5b803582811115611abb57611abb61197c565b8060051b611aca858201611990565b918252828101850191858101908c841115611ae3575f80fd5b86850192505b83831015611b1e57823586811115611b00575f8081fd5b611b0e8e89838901016119c1565b8352509186019190860190611ae9565b999c989b50989960600135985050505050505050565b5f805f8060808587031215611b47575f80fd5b611b508561169f565b935060208501359250604085013567ffffffffffffffff80821115611b73575f80fd5b611b7f888389016119c1565b93506060870135915080821115611b94575f80fd5b50611ba1878288016119c1565b91505092959194509250565b5f805f60608486031215611bbf575f80fd5b83359250602084013567ffffffffffffffff80821115611bdd575f80fd5b611be9878388016119c1565b93506040860135915080821115611bfe575f80fd5b50611c0b868287016119c1565b9150509250925092565b600181811c90821680611c2957607f821691505b602082108103611c4757634e487b7160e01b5f52602260045260245ffd5b50919050565b6020808252600f908201526e125b9d985b1a59081c1bdb1b081251608a1b604082015260600190565b634e487b7160e01b5f52601160045260245ffd5b5f60018201611c9b57611c9b611c76565b5060010190565b80820180821115610d5257610d52611c76565b601f821115611cfe575f81815260208120601f850160051c81016020861015611cdb5750805b601f850160051c820191505b81811015611cfa57828155600101611ce7565b5050505b505050565b815167ffffffffffffffff811115611d1d57611d1d61197c565b611d3181611d2b8454611c15565b84611cb5565b602080601f831160018114611d64575f8415611d4d5750858301515b5f19600386901b1c1916600185901b178555611cfa565b5f85815260208120601f198616915b82811015611d9257888601518255948401946001909101908401611d73565b5085821015611daf57878501515f19600388901b60f8161c191681555b5050505050600190811b01905550565b604081525f611dd16040830185611716565b905060018060a01b03831660208301529392505050565b602081525f6116ce602083018461171656fea264697066735822122020a0ef42b9566817f3df598f197b36fa256e921b95a3068ec8cd6549c973aa9164736f6c63430008140033",
  "immutableReferences": {},
  "source": "// SPDX-License-Identifier: MIT\r\npragma solidity ^0.8.19;\r\n\r\nimport \"@openzeppelin/contracts/access/Ownable.sol\";\r\nimport \"@openzeppelin/contracts/utils/ReentrancyGuard.sol\";\r\n\r\ncontract VotingSystem is Ownable, ReentrancyGuard {\r\n    struct Poll {\r\n        uint256 id;\r\n        string title;\r\n        string description;\r\n        string[] options;\r\n        uint256 startTime;\r\n        uint256 endTime;\r\n        bool active;\r\n        address creator;\r\n    }\r\n\r\n    struct Vote {\r\n        uint256 pollId;\r\n        address voter;\r\n        string encryptedVote;\r\n        string voteHash;\r\n        uint256 timestamp;\r\n    }\r\n\r\n    mapping(uint256 => Poll) public polls;\r\n    mapping(uint256 => mapping(address => bool)) public hasVoted;\r\n    mapping(address => bool) public registeredVoters;\r\n    mapping(uint256 => Vote[]) public pollVotes;\r\n    \r\n    uint256 public pollCounter;\r\n    \r\n    event PollCreated(uint256 indexed pollId, string title, address creator);\r\n    event VoterRegistered(address indexed voter);\r\n    event VoteCast(uint256 indexed pollId, address indexed voter, string voteHash);\r\n\r\n    constructor() Ownable(msg.sender) {\r\n        pollCounter = 0;\r\n    }\r\n\r\n    modifier onlyRegisteredVoter() {\r\n        require(registeredVoters[msg.sender], \"Voter not registered\");\r\n        _;\r\n    }\r\n\r\n    modifier validPoll(uint256 _pollId) {\r\n        require(_pollId > 0 && _pollId <= pollCounter, \"Invalid poll ID\");\r\n        require(polls[_pollId].active, \"Poll is not active\");\r\n        require(block.timestamp >= polls[_pollId].startTime, \"Poll not started\");\r\n        require(block.timestamp <= polls[_pollId].endTime, \"Poll ended\");\r\n        _;\r\n    }\r\n\r\n    function createPoll(\r\n        string memory _title,\r\n        string memory _description,\r\n        string[] memory _options,\r\n        uint256 _duration\r\n    ) external onlyOwner returns (uint256) {\r\n        require(_options.length >= 2, \"Poll must have at least 2 options\");\r\n        require(_duration > 0, \"Duration must be greater than 0\");\r\n\r\n        pollCounter++;\r\n        \r\n        polls[pollCounter] = Poll({\r\n            id: pollCounter,\r\n            title: _title,\r\n            description: _description,\r\n            options: _options,\r\n            startTime: block.timestamp,\r\n            endTime: block.timestamp + _duration,\r\n            active: true,\r\n            creator: msg.sender\r\n        });\r\n\r\n        emit PollCreated(pollCounter, _title, msg.sender);\r\n        return pollCounter;\r\n    }\r\n\r\n    function registerVoter(address _voter) external onlyOwner {\r\n        require(!registeredVoters[_voter], \"Voter already registered\");\r\n        registeredVoters[_voter] = true;\r\n        emit VoterRegistered(_voter);\r\n    }\r\n\r\n    function castVote(\r\n        uint256 _pollId,\r\n        string memory _encryptedVote,\r\n        string memory _voteHash\r\n    ) external onlyRegisteredVoter validPoll(_pollId) nonReentrant {\r\n        require(!hasVoted[_pollId][msg.sender], \"Already voted in this poll\");\r\n        require(bytes(_encryptedVote).length > 0, \"Encrypted vote cannot be empty\");\r\n        require(bytes(_voteHash).length > 0, \"Vote hash cannot be empty\");\r\n\r\n        hasVoted[_pollId][msg.sender] = true;\r\n        \r\n        Vote memory newVote = Vote({\r\n            pollId: _pollId,\r\n            voter: msg.sender,\r\n            encryptedVote: _encryptedVote,\r\n            voteHash: _voteHash,\r\n            timestamp: block.timestamp\r\n        });\r\n\r\n        pollVotes[_pollId].push(newVote);\r\n        \r\n        emit VoteCast(_pollId, msg.sender, _voteHash);\r\n    }\r\n\r\n    // Function to cast vote on behalf of a registered voter (for gasless voting)\r\n    function castVoteFor(\r\n        address _voter,\r\n        uint256 _pollId,\r\n        string memory _encryptedVote,\r\n        string memory _voteHash\r\n    ) external onlyOwner validPoll(_pollId) nonReentrant {\r\n        require(registeredVoters[_voter], \"Voter not registered\");\r\n        require(!hasVoted[_pollId][_voter], \"Voter already voted in this poll\");\r\n        require(bytes(_encryptedVote).length > 0, \"Encrypted vote cannot be empty\");\r\n        require(bytes(_voteHash).length > 0, \"Vote hash cannot be empty\");\r\n\r\n        hasVoted[_pollId][_voter] = true;\r\n        \r\n        Vote memory newVote = Vote({\r\n            pollId: _pollId,\r\n            voter: _voter,\r\n            encryptedVote: _encryptedVote,\r\n            voteHash: _voteHash,\r\n            timestamp: block.timestamp\r\n        });\r\n\r\n        pollVotes[_pollId].push(newVote);\r\n        \r\n        emit VoteCast(_pollId, _voter, _voteHash);\r\n    }\r\n\r\n    function getPollDetails(uint256 _pollId) external view returns (\r\n        uint256 id,\r\n        string memory title,\r\n        string memory description,\r\n        string[] memory options,\r\n        uint256 startTime,\r\n        uint256 endTime,\r\n        bool active\r\n    ) {\r\n        require(_pollId > 0 && _pollId <= pollCounter, \"Invalid poll ID\");\r\n        Poll memory poll = polls[_pollId];\r\n        return (\r\n            poll.id,\r\n            poll.title,\r\n            poll.description,\r\n            poll.options,\r\n            poll.startTime,\r\n            poll.endTime,\r\n            poll.active\r\n        );\r\n    }\r\n\r\n    function hasUserVoted(uint256 _pollId, address _voter) external view returns (bool) {\r\n        return hasVoted[_pollId][_voter];\r\n    }\r\n\r\n    function getVotesByPoll(uint256 _pollId) external view onlyOwner returns (Vote[] memory) {\r\n        return pollVotes[_pollId];\r\n    }\r\n\r\n    function getVoteCount(uint256 _pollId) external view returns (uint256) {\r\n        return pollVotes[_pollId].length;\r\n    }\r\n\r\n    function endPoll(uint256 _pollId) external onlyOwner {\r\n        require(_pollId > 0 && _pollId <= pollCounter, \"Invalid poll ID\");\r\n        polls[_pollId].active = false;\r\n    }\r\n\r\n    function isVoterRegistered(address _voter) external view returns (bool) {\r\n        return registeredVoters[_voter];\r\n    }\r\n}",
  "sourcePath": "D:\\code\\blockchain-voting-system\\contracts\\VotingSystem.sol",
  "compiler": {
    "name": "solc",
    "version": "0.8.20+commit.a1b79de6.Emscripten.clang"
  },
  "schemaVersion": "3.4.16",
  "updatedAt": "2025-09-16T06:04:25.155Z",
  "networkType": "ethereum",
  "devdoc": {
    "errors": {
      "OwnableInvalidOwner(address)": [
        {
          "details": "The owner is not a valid owner account. (eg. `address(0)`)"
        }
      ],
      "OwnableUnauthorizedAccount(address)": [
        {
          "details": "The caller account is not authorized to perform an operation."
        }
      ],
      "ReentrancyGuardReentrantCall()": [
        {
          "details": "Unauthorized reentrant call."
        }
      ]
    },
    "kind": "dev",
    "methods": {
      "owner()": {
        "details": "Returns the address of the current owner."
      },
      "renounceOwnership()": {
        "details": "Leaves the contract without owner. It will not be possible to call `onlyOwner` functions. Can only be called by the current owner. NOTE: Renouncing ownership will leave the contract without an owner, thereby disabling any functionality that is only available to the owner."
      },
      "transferOwnership(address)": {
        "details": "Transfers ownership of the contract to a new account (`newOwner`). Can only be called by the current owner."
      }
    },
    "version": 1
  },
  "userdoc": {
    "kind": "user",
    "methods": {},
    "version": 1
  }
}